101110000056300 BADANO MARIA ESTHER S D    --  00000485730000000000    000000 0000000000510016  01100A20007000      01100A000000
102110000056300 BADANO MARIA ESTHER S D    --  00000126000000000000    000000 0000000000000000  *DAGOST/08N         01100A000000
102110000056300 BADANO MARIA ESTHER S D    --  00000159211000000000    000000 0000000000000000  *D204-3/04          01100A000000
102110000056300 BADANO MARIA ESTHER S D    --  00000037800000000000    000000 0000000000000000  *BONI.MAR14-7 70    01100A000000
101411001453640 PONZO ALBERTO LUIS         519600000610159000000000    000000 0000000000366088  H2124ZG24170        H21240000000
102411001453640 PONZO ALBERTO LUIS         519600000081355000000000    000000 0000000000000000  *CMH BPLANTA.       H21240000000
102411001453640 PONZO ALBERTO LUIS         519600000012885000000000    000000 0000000000000000  *CMH BREM.AGO16     H21240000000
102411001453640 PONZO ALBERTO LUIS         519600000002100000000000    000000 0000000000000000  *D1823/05           H21240000000
102411001453640 PONZO ALBERTO LUIS         519600000018060000000000    000000 0000000000000000  *D203/04            H21240000000
102411001453640 PONZO ALBERTO LUIS         519600000333716000000000    000000 0000000000000000  *DMAR/09            H21240000000
102411001453640 PONZO ALBERTO LUIS         519600000011407000000000    000000 0000000000000000  *DMAR1/08           H21240000000
102411001453640 PONZO ALBERTO LUIS         519600000178762000000000    000000 0000000000000000  *DMAR2/08           H21240000000
101311001471310 TACACUWA HORACIO HIRAMU    505500000885285000000000    000000 0000000000356335  O20CA042287000      O20CA0000000
102311001471310 TACACUWA HORACIO HIRAMU    505500000155859000000000    000000 0000000000000000  *BON.25% OBR.S      O20CA0000000
102311001471310 TACACUWA HORACIO HIRAMU    505500000084706000000000    000000 0000000000000000  *BON.TIT OBR.S.     O20CA0000000
102311001471310 TACACUWA HORACIO HIRAMU    505500000024937000000000    000000 0000000000000000  *D203/04            O20CA0000000
102311001471310 TACACUWA HORACIO HIRAMU    505500000258599000000000    000000 0000000000000000  *DMAR16             O20CA0000000
101411003973140 GUZMAN CARLOS ALBERTO      532200001235290000000000    000000 0000000000852350  M061S10300002370    M061S1030000
102411003973140 GUZMAN CARLOS ALBERTO      532200000077140000000000    000000 0000000000000000  *BON.MUN.SUPL2      M061S1030000
101411004017010 DEODATO FRANCISCO PABLO    514000002280663000000000    000000 0000000002463116  M104S48400002770    M104S4840000
102411004017010 DEODATO FRANCISCO PABLO    514000000154000000000000    000000 0000000000000000  *BON.MUN.SUPL2      M104S4840000
102411004017010 DEODATO FRANCISCO PABLO    514000000005250000000000    000000 0000000000000000  *BON.MUN.SUMF2      M104S4840000
102411004017010 DEODATO FRANCISCO PABLO    514000000058030000000000    000000 0000000000000000  00MEDICONACION27    00MEDICONACI
*
101311004021390 VILLAGRA BELLO FELIPE DAV  -   00001683900000000000    000000 0000000001557576  K1248IE37075        K12480000000
102311004021390 VILLAGRA BELLO FELIPE DAV  -   00000193831000000000    000000 0000000000000000  *CMH BPLANTA.       K12480000000
102311004021390 VILLAGRA BELLO FELIPE DAV  -   00000106607000000000    000000 0000000000000000  *CMH BGRADOK.       K12480000000
102311004021390 VILLAGRA BELLO FELIPE DAV  -   00000030672000000000    000000 0000000000000000  *CMH BREM.AGO16     K12480000000
102311004021390 VILLAGRA BELLO FELIPE DAV  -   00000002250000000000    000000 0000000000000000  *D1823/05           K12480000000
102311004021390 VILLAGRA BELLO FELIPE DAV  -   00000536331000000000    000000 0000000000000000  *DMAR/09            K12480000000
:
