2013N5030894110 PIÑERO LEA ZULEMA          511300000307989000000000    000000 0000000000215591  H3624IM28153        H36240000000
2023N5030894110 PIÑERO LEA ZULEMA          511300000151089000000000    000000 0000000000000000  H3624IM00126        H36240000000
201325034201310 EHUL DOLLY                 502000000307989000000000    000000 0000000000107789  H3624IM140530000    H36240000000
201327005383930 CARABELLI CORA HEBE        531800000307989000000000    000000 0000000000123193  H3624IM16053        H36240000000
201327010846200 DIPERNA ANGELA EVELIA      521600000307989000000000    000000 0000000000146292  H3624IM19053        H36240000000
201327011736100 PISTORIO MERCEDES JOSEFA   524300000307989000000000    000000 0000000000223286  H3624IG29153        H36240000000
202327014354830 FERNANDEZ MARTA SUSANA     514000000092977000000000    000000 0000000000020916  H3624IM09016        H36240000000
201327020238170 STRASNOY CLARA             511900000307989000000000    000000 0000000000092385  H3624IM12053        H36240000000
201327021525730 VIDAL NOEMI ELENA          508800000307989000000000    000000 0000000000107789  H3624IM14153        H36240000000
202427026157970 MORANO NELIDA ESTHER       508200000098789000000000    000000 0000000000027164  H3624IM11017        H36240000000
201327029483960 ASBORNO MYRTHA NOELIA      519700000307989000000000    000000 0000000000076994  H3624IM10153        H36240000000
201327036945960 CHAZEN NELLY               500300000307989000000000    000000 0000000000146292  H3624IM19053        H36240000000
201327040956520 SLOBODIANIUK NELIDA SUSAN  503900000307989000000000    000000 0000000000100093  H3624IM13053        H36240000000
201327049731980 BERROETA SILVIA MARTA      508800000307989000000000    100000 0000534000107789  H3624IM14053        H36240000000
2014Z7051987400 MENGHINI ALICIA ESTER      540100000307989000000000    100000 0002659000161683  H3624IM21053        H36240000000
201327056133320 BERRHAU SULAMITA BEATRIZ   530700000307989000000000    000000 0000000000100093  H3624IM13153        H36240000000
201327120656490 IGLESIAS MARIA DE LOS ANG  503700000307989000000000    100000 0004485000092385  H3624IM12053        H36240000000
201327139081020 CASTRO MARIA CELIA         530600000307989000000000    000000 0000000000092385  H3624IM12053        H36240000000
201327946461810 BOROWSKI LEONOR            541400000307989000000000    000000 0000000000092385  H3624IM12053        H36240000000
201321075942370 FILIPELLO OSVALDO JOSE     510600000461984000000000    000000 0000000000127034  H3636IM11053        H36360000000
201322053050580 GUETTIER NELIDA DORA       506800000252783000000000    000000 0000000000088468  H3636IM14029        H36360000000
201322064952080 GAGLIARDI SUSANA ISABEL C  531900000461984000000000    000000 0000000000127034  H3636IM11053        H36360000000
201422075740340 GIMENEZ ANA CASIMIRA       531100000461984000000000    000000 0000000000161683  H3636IM14253        H36360000000
201325014137310 MUSACCHIO LIDIA ESTHER     519800000461984000000000    000000 0000000000415772  H3636IM36053        H36360000000
202325017542220 SANTAGATI DELIA EDITH      531900000461984000000000    000000 0000000000000000  H3636IM00053        H36360000000
202325022113420 CUETO ALICIA ROSA          522200000461984000000000    000000 0000000000000000  H3636IM00053        H36360000000
2013Z5033712950 VALVERDE ESTHER            517600000488134000000000    100000 0002487000183032  H3636IM15056        H36360000000
201325116167670 CHIARLO ADRIANA GLORIA     531800000461984000000000    000000 0000000000150140  H3636IM13053        H36360000000
201325922025030 LESMES GLADYS RIVERA DE    508400000461984000000000    000000 0000000000115491  H3636IM10253        H36360000000
